:100000003BC0D8C054C053C052C051C050C04FC0F4
:100010004EC04DC04CC04BC04AC049C048C047C08C
:1000200046C045C044C00902120001010080190900
:10003000040000000000000012011001FF00000891
:10004000C016DC050401010200010E035500530037
:1000500042006100730070001C0377007700770096
:100060002E00660069007300630068006C002E00BB
:10007000640065000403090411241FBECFE5D4E029
:10008000DEBFCDBF10E0A0E6B0E0E2EBFFE002C0D3
:1000900005900D92A236B107D9F720E0A2E6B0E0B4
:1000A00001C01D92AA3AB207E1F753D680C7A8CF84
:1000B000BD9ABB98C39A50E217D05A95E9F70895B4
:1000C000AC0188E605D0842F03D089E601D0852FC6
:1000D0000FD028E030E0382780FB869506D02A959F
:1000E000D1F730FB02D000D06894BB98C39A16F0C9
:1000F000C398BB9AE0917E00F0917F003197F0F7B2
:10010000C59AE6B3E3FBE0917E00F0917F00319762
:10011000F0F7C598089520ECE7DF46F42A95E1F75B
:1001200080E02AE1E5DF2A95E9F7DECF28E030E03C
:10013000DBDF869587F938272A95D1F7D5DF27F9B0
:10014000322772F3D1DFD0CFDB01742FB9DF84E225
:10015000BFDFE1DF8D937A95D1F70895DB01742F2E
:10016000AFDF83EFB5DF8DE1B3DF84E6B1DF8D91E3
:10017000AFDF82E7ADDFCFDF8078D9F77A9589F7F7
:100180000895A82FB92F80E090E041E050EA6095F3
:1001900030E009C02D9182279795879510F084272C
:1001A0009527305EC8F36F5FA8F30895EADF8D935B
:1001B0009D930895CF93CFB7CF93C395B09BE9F7A5
:1001C000B09B09C0B09B07C0B09B05C0B09B03C0EB
:1001D000B09B01C0A1C0DF93C0918D00DD27CC563C
:1001E000DF4FB09B02C0DF91EBCF2F930F931F9394
:1001F00006B32FEF00FB20F94F933F9316B34FEF59
:10020000012700FB21F93BE031C04E7F012F16B3DF
:10021000216028C0102F4D7F2260000006B329C046
:100220004B7F2460012F000016B32BC016B3477F0D
:1002300028602AC04F7E06B320612CC04F7D16B3C4
:1002400020622FC04F7B06B3206432C0422706B322
:1002500049934FEF0000102710FB20F916B31370DD
:10026000C9F1297F91F2012700FB21F906B3237F11
:1002700089F2315058F1102710FB22F916B3277E6E
:1002800079F2012700FB23F92F7C81F206B31027B6
:1002900010FB24F92F7971F200C016B3012700FB7F
:1002A00025F92F7359F200C006B3102710FB26F969
:1002B000223040F200C016B3012700FB27F924309A
:1002C00028F64F77206816B30000F9CF10E41ABF64
:1002D000002717C03B503195C31BD04010E41ABF14
:1002E0000881033CE9F00B34D9F020918B0019818F
:1002F000110F1213EDCF093641F10D3211F0013E0D
:1003000039F7009392003F914F911F910F912F91D8
:10031000DF91CAB7C6FD51CFCF91CFBFCF9118950E
:1003200020919200222379F310919000112311F56E
:10033000343012F13093900020938C0010918D0096
:100340003BE0311B30938D0017C0009190000130CD
:100350008CF40AE53091610034FD10C00093610017
:10036000C0E8D0E00FC02795A8F45150A9F4220F9F
:100370000000F9CF4AE503C042ED01C0432FC4E1BC
:10038000D0E032E017B31360C09A17BB08B320E483
:1003900013E05F93012756E008BB279520F45150E6
:1003A00021F4220FF9CF012756E000003B5A08BB89
:1003B000D0F2279528F4515029F4220F0000F9CFEC
:1003C000012756E0279508BB20F4515021F4220F55
:1003D000F9CF012756E02991332308BB21F60C7F82
:1003E00010919100110FC651D04008BB11F010932D
:1003F0008B0010E41ABF016017B31C7F402F4C7FA5
:100400005F9100C000C008BB17BB48BB7CCF90E029
:10041000981739F032B722B7231B2C33E0F39F5FD4
:10042000F7CF08958FB9779BFECF8FB10895DC0188
:10043000CB0121E1B695A795979587952A95D1F798
:1004400020917C002817D9F080937C00E0917900FE
:10045000F0917A008DE40995E0917900F0917A00AD
:1004600080E00995E0917900F0917A0080917C001C
:100470000995E0917900F0917A0080E0099408955F
:1004800080917B008DB9809178008EB90895882382
:1004900019F0883040F101C08AE022E132E0309367
:1004A0007A00209379001092780091E090937D007B
:1004B000893099F018F4883091F008C08B3021F021
:1004C0008C3021F49093780081E50AC082E5809316
:1004D0007B0081E080937800089582E501C083E588
:1004E00080937B0008952BE932E030937A002093CB
:1004F0007900843081F030F4823079F0833079F4FF
:1005000080E30EC0863061F020F0873041F483E054
:1005100007C08CE005C088E103C080E601C080EC24
:1005200080937D00089522B790917D0082B7821B51
:100530008917E0F308951F93CF93DF93182FD8E026
:10054000C0E017FF02C0C39A01C0C398110FCC0FBF
:10055000B499CF5FC59AE7DFC598E5DFD15089F739
:100560008C2FDF91CF911F91089587B38C6287BB49
:10057000C298C598D8DFC29AD6DFC2988091790018
:1005800090917A008251924009F47ADF10927C00B7
:10059000089587B3837D87BB88B3837D88BB1DB8EF
:1005A0000895CF93DF93C1E2C15051F1E0917900FA
:1005B000F0917A008CEA0995E0917900F0917A0047
:1005C00083E50995E0917900F0917A0080E0099542
:1005D000D82FE0917900F0917A0080E00995D33529
:1005E00089F01DB8A0DFC29A9EDFC2989CDF80917F
:1005F000790090917A0082519240B1F641DFD4CFD8
:1006000081E001C080E0DF91CF910895CF92DF9229
:10061000EF92FF926B017C010ADF8C2D8170880FB5
:10062000880F880FE0917900F0917A008062099537
:10063000D701C60129E0B695A795979587952A9584
:10064000D1F7E0917900F0917A000995D701C601C0
:10065000B695A79597958795E0917900F0917A00E6
:100660000995E0917900F0917A0080E0FF90EF9099
:10067000DF90CF900994CF92DF92EF92FF92CF93C9
:10068000DF936B017C01C42FD22FD1DE8C2D8170C2
:10069000880F880F880FE0917900F0917A008064CC
:1006A0000995D701C60129E0B695A7959795879535
:1006B0002A95D1F7E0917900F0917A000995D70158
:1006C000C601B695A79597958795E0917900F09129
:1006D0007A000995E0917900F0917A008C2F0995C4
:1006E000DD2321F0CF3721F48FE091DE80E00FC0D1
:1006F000D2B7CEE1C701B60189DF8F37B9F782B72C
:100700008D1B8D33B8F3D2B7C150A1F781E0DF91D3
:10071000CF91FF90EF90DF90CF900895CF92DF922E
:10072000EF92FF92CF93DF936B017C01C42F7FDEAA
:10073000E0917900F0917A008CE40995D701C60127
:1007400029E0B695A795979587952A95D1F7E091D9
:100750007900F0917A000995D701C601B695A79561
:1007600097958795E0917900F0917A000995E0914D
:100770007900F0917A0080E00995CF3F19F48FE07D
:1007800046DE10C0D2B7CEE1C701B6013FDF8F3FD2
:1007900049F482B78D1B8D33B8F3D2B7C150A1F79E
:1007A00081E001C080E0DF91CF91FF90EF90DF907A
:1007B000CF900895CF93DF93EC01E0917900F09111
:1007C0007A0080EA0995E0917900F0917A008D2F06
:1007D0000995E0917900F0917A008C2F0995E091CC
:1007E0007900F0917A0080E0DF91CF9109941F9316
:1007F000CF93DF93D82F192FC62FE0917900F09176
:100800007A0080EC0995E0917900F0917A00812FCF
:100810000995E0917900F0917A008D2F0995E0918A
:100820007900F0917A008C2F09958EE1F0DD80E05F
:10083000DF91CF911F910895CF93DF93EC018981D0
:10084000813061F49A9902C085E002C080916D0008
:100850001EDE10926C00A99888DE44C1823011F42B
:1008600098DEF2C0833009F5E0917900F0917A00CA
:100870008A81099580936F00E0917900F0917A0068
:100880008B81099580937000E0917900F0917A0056
:100890008C81099580937100E0917900F0917A0044
:1008A0008D810995809372001BC18430D1F48091B1
:1008B0006C0081110EC08A819B81092E000CAA0B4D
:1008C000BB0B8093680090936900A0936A00B0937B
:1008D0006B008E819F81909367008093660082E019
:1008E000F0C08730D1F480916C0081110EC08A81F4
:1008F0009B81092E000CAA0BBB0B80936800909380
:100900006900A0936A00B0936B008E819F819093E1
:1009100067008093660083E0D4C0853011F441DE27
:1009200098C0863079F580916C0081110EC08A8163
:100930009B81092E000CAA0BBB0B8093680090933F
:100940006900A0936A00B0936B003C812D81822FD7
:100950008F7080936300822F807F40E1849FC0016D
:100960001124830F911D909365008093640020FDF6
:10097000809362008E819F819093670080936600D0
:1009800081E09FC0883001F580916C0081110EC01C
:100990008A819B81092E000CAA0BBB0B80936800F7
:1009A00090936900A0936A00B0936B001092650069
:1009B00010926400109263008E819F819093670073
:1009C0008093660084E07DC0893081F481E080936B
:1009D0006C008A819B81AC81BD818093680090937B
:1009E0006900A0936A00B0936B007CC08A3031F438
:1009F0008A8180936D0010926F002DC08B3081F43E
:100A00008A819B8190937F0080937E00C29ABA9ADC
:100A100083E0FDDCC298A99880E1F9DC49DB62C083
:100A20008C30A1F480EC54DB80E052DB8AE0EFDC18
:100A3000C29A85E0ECDCC29885E0E9DC87B3837D6F
:100A400087BB88B3837D88BBA99A4CC08D3029F4BD
:100A500062DB80936F0081E046C08E3019F48A819A
:100A600037DB40C08F30B1F48A819B81092E000CA6
:100A7000AA0BBB0B8093680090936900A0936A0057
:100A8000B0936B008E819F81909367008093660086
:100A900085E017C08031C9F48A819B81092E000C42
:100AA000AA0BBB0B8093680090936900A0936A0027
:100AB000B0936B008E819F81909367008093660056
:100AC00086E080936E008FEF0EC08F3759F481E07F
:100AD00080936F001092700010927100109272005B
:100AE00084E001C080E02FE630E030938F00209357
:100AF0008E00DF91CF910895EF92FF920F931F9395
:100B0000CF93C62F20916E003EEF320F323028F483
:100B10008C017C01E60EF11C43C0253009F04FC06A
:100B2000462FBC0180916800909169000DDB809197
:100B3000680090916900A0916A00B0916B008C0FE1
:100B4000911DA11DB11D8093680090936900A09331
:100B50006A00B0936B0035C080916E00823021F541
:100B6000609168007091690080916A0090916B00BB
:100B70004DDDF80180838091680090916900A0911B
:100B80006A00B0916B000196A11DB11D80936800B1
:100B900090936900A0936A00B0936B000F5F1F4FA2
:100BA0000E151F05C9F606C0809168009091690076
:100BB00001DEDFCFC83028F410926E0002C08FEF44
:100BC00001C08C2FCF911F910F91FF90EF9008954E
:100BD000EF92FF921F93CF93DF93162F20916E0019
:100BE000213031F4EC017C01E10EF11C10E066C013
:100BF0002430C1F3263009F0A3C0462FBC018091F8
:100C0000680090916900AADA80916800909169006B
:100C1000A0916A00B0916B00810F911DA11DB11DC3
:100C20008093680090936900A0936A00B0936B0072
:100C30008091660090916700811B910990936700F5
:100C400080936600892B09F07DC010926E0081E0D0
:100C50007AC080916E00813009F04DC0209164000F
:100C600030916500609168007091690080916A0020
:100C700090916B00232B31F521E04881FCDC8091C1
:100C800066009091670001979093670080936600DB
:100C9000892BC1F18091680090916900A0916A0050
:100CA000B0916B000196A11DB11D809368009093D7
:100CB0006900A0936A00B0936B002196CE15DF0502
:100CC00041F63CC020E04881D6DC80916200815032
:100CD000809362008111D3CF6091680070916900A8
:100CE00080916A0090916B00488118DD80916400CA
:100CF00080936200C4CF6881809168009091690000
:100D000076DDBDCF10926E008091630081FF14C02C
:100D10008091620090E0209164003091650082171C
:100D2000930751F0609168007091690080916A00AA
:100D300090916B004881F2DC11E0ACCF812F03C0B1
:100D40008FEF01C080E0DF91CF911F91FF90EF9076
:100D5000089512BA18BA11BA8FEF87BB17BA83E099
:100D600084BB9EEF95BB83BF1BD1789401D0FECF8F
:100D7000CF93DF9360919000635067FDA4C0809192
:100D80008D00CCE0D0E0C81BD109CC56DF4F80915C
:100D90008C008D3209F086C0683009F092C083EC77
:100DA000809380008AE580936100109277008881AB
:100DB000807631F0CE0140DD8F3F09F462C068C01B
:100DC0008A81109289009981911106C010928A003F
:100DD00029E830E082E050C0953019F4809391000A
:100DE0003DC09630A9F59B81913019F488E390E0DD
:100DF00004C0923041F486E290E090938F0080939B
:100E00008E0082E121C09330F1F4811108C084E7A3
:100E100090E090938F0080938E0084E015C0813025
:100E200041F488E590E090938F0080938E008CE1F0
:100E30000BC0823041F48AE490E090938F0080935D
:100E40008E008EE001C080E090E49093770020C097
:100E5000983079F0993031F48093930029E830E0AC
:100E600080E00AC081E09A3009F080E029E830E0B3
:100E700003C023E930E081E030938F0020938E009F
:100E800007C0988197FD8E8190E89093770007C006
:100E90009F81911104C09E81981708F4892F809337
:100EA00060000FC08091770087FF0BC0CE0190DEFD
:100EB0008F3F21F48EE18093610003C08111109275
:100EC0006000109290008091610084FF55C0809175
:100ED00060008F3F09F450C0C82F893008F0C8E087
:100EE0008C1B809360009091800088E88927809314
:100EF0008000CC2309F44BC02091770027FF08C065
:100F00006C2F81E890E0F8DDC82F893078F523C098
:100F100080918E0090918F0026FF0AC0A1E8B0E07A
:100F2000FC012C2F34913D9331962150D9F708C004
:100F3000DC01E1E8F0E02C2F3D9131932150E1F705
:100F40002FEF2C0F30E02F5F3F4F820F931F9093B6
:100F50008F0080938E006C2F81E890E027D9CC5FC2
:100F6000CC3041F08FEF8093600004C08FEF80930E
:100F70006000CEE1C093610084E196B3937069F4A0
:100F80008150D9F71092910010928B0006C060E05A
:100F900081E890E00BD9C4E0E5CFDF91CF910895CF
:100FA00085B7836085BF8BB780648BBF0895F89445
:020FB000FFCF71
:020FB200FF5AE4
:00000001FF
