:1000000042C0DFC05BC05AC059C058C057C056C0BC
:1000100055C054C053C052C051C050C04FC04EC054
:100020004DC04CC04BC096C291C28CC287C282C226
:100030007DC278C209021200010100801909040082
:1000400000000000000012011001FF000008C016AF
:10005000DC050401010200010E03550053004200BB
:100060006100730070001C037700770077002E009A
:10007000660069007300630068006C002E00640075
:1000800065000403090411241FBECFE5D4E0DEBFE0
:10009000CDBF10E0A0E6B0E0E6E7F1E102C00590D8
:1000A0000D92A236B107D9F720E0A2E6B0E001C078
:1000B0001D92AA3AB207E1F716D75BC8A1CFBD9A45
:1000C000BB98C39A50E217D05A95E9F70895AC014E
:1000D00088E605D0842F03D089E601D0852F0FD084
:1000E00028E030E0382780FB869506D02A95D1F7A6
:1000F00030FB02D000D06894BB98C39A16F0C39826
:10010000BB9AE0917E00F0917F003197F0F7C59A9D
:10011000E6B3E3FBE0917E00F0917F003197F0F7CA
:10012000C598089520ECE7DF46F42A95E1F780E0D2
:100130002AE1E5DF2A95E9F7DECF28E030E0DBDFD2
:10014000869587F938272A95D1F7D5DF27F9322701
:1001500072F3D1DFD0CFDB01742FB9DF84E2BFDFD0
:10016000E1DF8D937A95D1F70895DB01742FAFDF2E
:1001700083EFB5DF8DE1B3DF84E6B1DF8D91AFDFD3
:1001800082E7ADDFCFDF8078D9F77A9589F70895D8
:10019000A82FB92F80E090E041E050EA609530E070
:1001A00009C02D9182279795879510F08427952770
:1001B000305EC8F36F5FA8F30895EADF8D939D93D7
:1001C0000895CF93CFB7CF93C395B09BE9F7B09B7A
:1001D00009C0B09B07C0B09B05C0B09B03C0B09BDB
:1001E00001C0A1C0DF93C0918D00DD27CC56DF4F49
:1001F000B09B02C0DF91EBCF2F930F931F9306B3F9
:100200002FEF00FB20F94F933F9316B34FEF0127D9
:1002100000FB21F93BE031C04E7F012F16B3216076
:1002200028C0102F4D7F2260000006B329C04B7FED
:100230002460012F000016B32BC016B3477F28603F
:100240002AC04F7E06B320612CC04F7D16B32062BA
:100250002FC04F7B06B3206432C0422706B34993B8
:100260004FEF0000102710FB20F916B31370C9F1EF
:10027000297F91F2012700FB21F906B3237F89F240
:10028000315058F1102710FB22F916B3277E79F26E
:10029000012700FB23F92F7C81F206B3102710FB06
:1002A00024F92F7971F200C016B3012700FB25F95C
:1002B0002F7359F200C006B3102710FB26F9223025
:1002C00040F200C016B3012700FB27F9243028F6BE
:1002D0004F77206816B30000F9CF10E41ABF00274B
:1002E00017C03B503195C31BD04010E41ABF0881A2
:1002F000033CE9F00B34D9F020918B001981110FE8
:100300001213EDCF093641F10D3211F0013E39F7EC
:10031000009392003F914F911F910F912F91DF9188
:10032000CAB7C6FD51CFCF91CFBFCF9118952091BD
:100330009200222379F310919000112311F53430AB
:1003400012F13093900020938C0010918D003BE0CF
:10035000311B30938D0017C00091900001308CF458
:100360000AE53091610034FD10C000936100C0E8DF
:10037000D0E00FC02795A8F45150A9F4220F000037
:10038000F9CF4AE503C042ED01C0432FC4E1D0E0FC
:1003900032E017B31360C09A17BB08B320E413E030
:1003A0005F93012756E008BB279520F4515021F4B4
:1003B000220FF9CF012756E000003B5A08BBD0F2CC
:1003C000279528F4515029F4220F0000F9CF012776
:1003D00056E0279508BB20F4515021F4220FF9CFA5
:1003E000012756E02991332308BB21F60C7F109199
:1003F0009100110FC651D04008BB11F010938B0033
:1004000010E41ABF016017B31C7F402F4C7F5F912F
:1004100000C000C008BB17BB48BB7CCF882349F095
:1004200030E022B792B7921B9C33E0F33F5F831317
:10043000F8CF08958FB9779BFECF8FB10895DC0177
:10044000CB01072E71E1B695A795979587957A957B
:10045000D1F7702D20917C002817D9F080937C0073
:10046000E0917900F0917A008DE40995E0917900AE
:10047000F0917A0080E00995E0917900F0917A009E
:1004800080917C000995E0917900F0917A0080E0FC
:100490000995089580917B008DB9809178008EB97F
:1004A0000895E82F882309F459C0883058F18AE16B
:1004B00092E090937A00809379001092780081E026
:1004C00080937D00E930B1F018F4E830B9F00BC04A
:1004D000EB3029F0EC3039F481E08093780081E54D
:1004E00080937B00089582E580937B0081E0809378
:1004F0007800089582E580937B00089583E58093DA
:100500007B00089581EC92E090937A0080937900CB
:100510008E2F90E0FC013197E730F10548F5ED5E54
:10052000FF4F099483E080937D00089586E08093D7
:100530007D0008958CE080937D00089588E180938C
:100540007D00089580E380937D00089580E6809388
:100550007D00089580EC80937D0008958AE192E00B
:1005600090937A008093790081E080937D00BBCFE7
:10057000089522B790917D0082B7821B8917E0F31E
:1005800008951F93CF93DF93182FD8E0C0E0112375
:1005900014F4C39A01C0C398110FCC0FB499CF5F64
:1005A000C59AE7DFC598E5DFD15089F78C2FDF9139
:1005B000CF911F91089587B38C6287BBC298C5986D
:1005C000D8DFC29AD6DFC2988091790090917A00E4
:1005D0008A51924009F45EDF10927C00089587B33F
:1005E000837D87BB88B3837D88BB1DB80895CF9377
:1005F000DF93C0E2E0917900F0917A008CEA0995EE
:10060000E0917900F0917A0083E50995E091790015
:10061000F0917A0080E00995D82FE0917900F0916F
:100620007A0080E00995D33591F01DB8A2DFC29A17
:10063000A0DFC2989EDF8091790090917A008A5164
:10064000924009F427DFC150A9F681E001C080E0A3
:10065000DF91CF910895CF92DF92EF92FF926B01DD
:100660007C01EDDE8C2D8170880F880F880FE09162
:100670007900F0917A0080620995D701C601072EB2
:1006800079E0B695A795979587957A95D1F7702DCE
:10069000E0917900F0917A000995D701C601B695ED
:1006A000A79597958795E0917900F0917A00099543
:1006B000E0917900F0917A0080E00995FF90EF9049
:1006C000DF90CF900895CF92DF92EF92FF92CF9379
:1006D000DF936B017C01C42FD22FB1DE8C2D817092
:1006E000880F880F880FE0917900F0917A0080647C
:1006F0000995D701C601072E79E0B695A79597957C
:1007000087957A95D1F7702DE0917900F0917A0074
:100710000995D701C601B695A79597958795E0915C
:100720007900F0917A000995E0917900F0917A00D2
:100730008C2F0995DD23B9F0CF3721F48FE06EDEE1
:1007400080E014C0D2B7CEE1C701B60184DF8F3795
:1007500061F482B78D1B8D3310F0D2B7C150C11137
:10076000F3CF81E003C080E001C080E0DF91CF9152
:10077000FF90EF90DF90CF900895CF92DF92EF92AD
:10078000FF92CF93DF936B017C01C42F58DEE09181
:100790007900F0917A008CE40995D701C601072E03
:1007A00079E0B695A795979587957A95D1F7702DAD
:1007B000E0917900F0917A000995D701C601B695CC
:1007C000A79597958795E0917900F0917A00099522
:1007D000E0917900F0917A0080E00995CF3F21F413
:1007E0008FE01CDE80E012C0D2B7CEE1C701B601B7
:1007F00032DF8F3F51F482B78D1B8D3310F0D2B7AB
:10080000C150C111F3CF81E001C080E0DF91CF91F1
:10081000FF90EF90DF90CF900895CF93DF93C82F94
:10082000D92FE0917900F0917A0080EA0995E09162
:100830007900F0917A008D2F0995E0917900F0917F
:100840007A008C2F0995E0917900F0917A0080E090
:100850000995DF91CF9108951F93CF93DF93D82F00
:10086000192FC62FE0917900F0917A0080EC09955C
:10087000E0917900F0917A00812F0995E09179005B
:10088000F0917A008D2F0995E0917900F0917A002E
:100890008C2F09958EE1C2DD80E0DF91CF911F9111
:1008A00008950F931F93CF93DF93EC0189818130DB
:1008B00071F49A9903C085E0F4DD03C080916D0066
:1008C000F0DD10926C00A99876DE80E093C1823052
:1008D00021F485DEA99A80E08DC1833021F5E09175
:1008E0007900F0917A008A8109950FE610E0F8010D
:1008F0008083E0917900F0917A008B810995F8016D
:100900008183E0917900F0917A008C810995F8015A
:100910008283E0917900F0917A008D810995F80148
:10092000838384E067C1843029F580916C00811154
:1009300012C08B8190E0982F88272A81822B092E64
:10094000000CAA0BBB0B8093680090936900A093E6
:100950006A00B0936B008F8190E0982F88272E81DA
:10096000822B909367008093660082E080936E00F4
:100970008FEF40C1873029F580916C00811112C042
:100980008B8190E0982F88272A81822B092E000CDA
:10099000AA0BBB0B8093680090936900A0936A0038
:1009A000B0936B008F8190E0982F88272E81822B47
:1009B000909367008093660083E080936E008FEFD2
:1009C00019C1853029F413DE80936F0081E012C1D4
:1009D0008630D1F580916C00811112C08B8190E03E
:1009E000982F88272A81822B092E000CAA0BBB0B7B
:1009F0008093680090936900A0936A00B0936B00A5
:100A00003C812D81822F8F7080936300822F807FA5
:100A1000F0E18F9FC0011124830F911D9093650019
:100A20008093640020FD809362008F8190E0982F76
:100A300088272E81822B909367008093660081E047
:100A400080936E008FEFD6C0883059F580916C008E
:100A5000811112C08B8190E0982F88272A81822BE8
:100A6000092E000CAA0BBB0B8093680090936900C1
:100A7000A0936A00B0936B0010926500109264001E
:100A8000109263008F8190E0982F88272E81822B0F
:100A9000909367008093660084E080936E008FEFF0
:100AA000A9C0893089F481E080936C008A819B81A0
:100AB000AC81BD818093680090936900A0936A0027
:100AC000B0936B0080E096C08A3039F48A818093BD
:100AD0006D0010926F0081E08DC08B30A9F48B8186
:100AE00090E0982F88272A81822B90937F00809313
:100AF0007E00C29ABA9A83E091DCC298A99880E1FC
:100B00008DDCDDDA80E076C08C30A9F480ECE7DAA9
:100B100080E0E5DA8AE082DCC29A85E07FDCC29878
:100B200085E07CDC87B3837D87BB88B3837D88BB0E
:100B3000A99A80E05FC08D3029F4F4DA80936F00C9
:100B400081E058C08E3021F48A81C9DA80E052C039
:100B50008F3009F58B8190E0982F88272A81822B8E
:100B6000092E000CAA0BBB0B8093680090936900C0
:100B7000A0936A00B0936B008F8190E0982F882734
:100B80002E81822B909367008093660085E080938E
:100B90006E008FEF2FC0803109F58B8190E0982F88
:100BA00088272A81822B092E000CAA0BBB0B80936D
:100BB000680090936900A0936A00B0936B008F81E6
:100BC00090E0982F88272E81822B90936700809346
:100BD000660086E080936E008FEF0CC08F3749F47B
:100BE000EFE6F0E081E0808311821282138284E0DC
:100BF00001C080E02FE630E030938F0020938E001C
:100C0000DF91CF911F910F910895DF92EF92FF92A4
:100C10000F931F93CF93DF93FC01D62E90916E001C
:100C20002EEF290F223020F0953009F065C005C065
:100C3000953019F061111EC05BC04D2DBF01809130
:100C400068009091690087DA80916800909169004E
:100C5000A0916A00B0916B008D0D911DA11DB11D79
:100C60008093680090936900A0936A00B0936B0032
:100C70008D2D45C0EF019FEF960F092F10E00F5FFC
:100C80001F4F0E0F1F1F0F2EF8E6EF2EF0E0FF2E66
:100C9000F02D90916E00923059F46091680070913F
:100CA000690080916A0090916B00D5DC888305C053
:100CB000F70180819181B1DD888340916800509176
:100CC000690060916A0070916B004F5F5F4F6F4FDA
:100CD0007F4F409368005093690060936A0070935F
:100CE0006B002196C017D107A1F6F7E0FD1530F093
:100CF00010926E008D2D03C08FEF01C08D2DDF91FE
:100D0000CF911F910F91FF90EF90DF900895BF92C8
:100D1000CF92DF92EF92FF920F931F93CF93DF93C7
:100D20009C01162F90916E00913031F0943021F09B
:100D3000963009F0CBC004C011112EC080E0C9C0AC
:100D4000462FB90180916800909169000EDA809178
:100D5000680090916900A0916A00B0916B00810FCA
:100D6000911DA11DB11D8093680090936900A0930F
:100D70006A00B0936B008091660090916700811BC0
:100D800091099093670080936600892B09F0A0C0B9
:100D900010926E0081E09DC0E9011150012F10E01A
:100DA0000F5F1F4F020F131FB12C0F2EF8E6EF2E0F
:100DB000F0E0FF2EF02D0F2EF4E6CF2EF0E0DF2E28
:100DC000F02D80916E00813099F5809164009091B2
:100DD0006500892B61F460916800709169008091D1
:100DE0006A0090916B0021E048816DDC26C0609123
:100DF00068007091690080916A0090916B0020E01A
:100E0000488161DC80916200815080936200811191
:100E100014C0609168007091690080916A0090919F
:100E20006B004881AADCF60180818093620005C0D6
:100E30006881F701808191810FDD209166003091FA
:100E40006700215031093093670020936600232BFF
:100E500011F510926E008091630081FF17C08091A0
:100E6000620090E020916400309165008217930742
:100E700081F0609168007091690080916A009091A2
:100E80006B0048817ADCBB24B39405C0BB24B394C7
:100E900002C0BB24B39440916800509169006091F6
:100EA0006A0070916B004F5F5F4F6F4F7F4F4093B1
:100EB00068005093690060936A0070936B002196FC
:100EC0000C171D0709F07DCF8B2D03C08FEF01C0DC
:100ED00080E0DF91CF911F910F91FF90EF90DF9015
:100EE000CF90BF90089512BA18BA11BA8FEF87BB8E
:100EF0009FEF80E08150F1F79150D9F717BA83E066
:100F000084BB9EEF95BB83BF2DD1789401D0FECFDB
:100F1000CF93DF936091900063500AF4AEC02091AC
:100F20008D008CE090E0821B9109EC01CC56DF4FE4
:100F300080918C008D3209F08FC0683009F09BC021
:100F400083EC809380008AE58093610010927700A3
:100F50008881807619F0CE01A4DC6AC08A81109263
:100F600089009981911106C010928A0029E830E029
:100F700082E05AC0953031F48093910029E830E046
:100F800080E052C09630E1F59B81913041F486E4D7
:100F900090E090938F0080938E0082E12DC092307C
:100FA00041F484E390E090938F0080938E0082E17F
:100FB00023C09330F1F4811108C082E890E090934F
:100FC0008F0080938E0084E017C0813041F486E664
:100FD00090E090938F0080938E008CE10DC0823062
:100FE00051F488E590E090938F0080938E008EE01E
:100FF00003C080E001C080E090E49093770018C0C7
:10100000983079F0993031F48093930029E830E0FA
:1010100080E00AC081E09A3009F080E029E830E001
:1010200003C023E930E081E030938F0020938E00ED
:101030008F3F41F4988199230CF48E8190E890932E
:10104000770007C09F81911104C09E81981708F412
:10105000892F809360000FC08091770088235CF413
:10106000CE0155DE8F3F21F48EE18093610003C0F5
:10107000811110926000109290008091610084FFB5
:101080005AC0809160008F3F09F455C0C82F893045
:1010900008F0C8E08C1B80936000E0E8F0E09081ED
:1010A00088E889278083CC2309F453C08091770096
:1010B000882334F46C2F81E890E0A7DDC82F28C086
:1010C00020918E0030918F0086FF10C0A1E8B0E023
:1010D000F9018C2F94919D9331968150D9F78FEF20
:1010E0008C0F90E00196280F391F0EC0D901E1E85E
:1010F000F0E08C2F9D9191938150E1F78FEF8C0F51
:1011000090E00196280F391F30938F0020938E00B6
:10111000C93058F46C2F81E890E04FD8CC5FCC30C8
:1011200040F48FEF8093600004C08FEF80936000E5
:10113000CEE1C093610086B3837089F493E186B3F6
:10114000837069F49150D9F71092910010928B003E
:1011500006C060E081E890E030D8C4E0E2CFDF91E3
:10116000CF91089585B7836085BF8BB780648BBFAF
:061170000895F894FFCF82
:02117600FF5A1E
:00000001FF
